:1000000018F09FE518F09FE518F09FE518F09FE5C0
:1000100018F09FE50000000014F09FE514F09FE544
:100020006C02000050030000500300005003000069
:0C003000500300005003000050030000CB
:1002000000B5002003E0491CFF29FCDD401CFF284D
:1002100001DC0021F8E700BD80B510480021016035
:100220000F48FF21090601600E48F0210906016010
:10023000FFF7E6FF0C48F02109060160FFF7E0FF39
:100240000848F02109050160FFF7DAFF0648F021B0
:1002500009050160FFF7D4FFE6E7000014C002E0E3
:10026000188002E0148002E01C8002E000000FE130
:100270001F00C0E3120080E300F021E134D09FE5CD
:1002800007D0CDE31F00C0E3110080E300F021E1BF
:1002900024D09FE507D0CDE31F00C0E31F0080E31B
:1002A00000F021E114D09FE507D0CDE30000A0E1EC
:1002B0000000A0E10B0000EA2021004020310040B6
:1002C0002011004000C09FE51CFF2FE10D0300003E
:1002D00000C09FE51CFF2FE11902000000C09FE550
:1002E0001CFF2FE1110300000100A0E3F4FFFFEB6E
:1002F000000050E30000A0E10000A0E3F3FFFFEBEB
:10030000F5FFFFEB040000EBFDFFFFEA0120704763
:1003100080B500F013F809BC1847000000502DE923
:100320000000A0E12620A0E3802B82E30210A0E1E0
:100330001800A0E3563412EFFBFFFFEA7847C046EF
:100340000070B0E10700B0E1F3FFFFEBFDFFFFEA53
:08035000FEFFFFEA0EF0B0E130
:040000050000026C89
:00000001FF
