:1000000018F09FE518F09FE518F09FE518F09FE5C0
:1000100018F09FE50000000014F09FE514F09FE544
:100020007002000054030000540300005403000059
:0C003000540300005403000054030000BF
:10020000C0B5002001900AE00098401C00900098C2
:10021000FA2149008842F7DB0198401C01900198BF
:100220003F2802DA00200090F1E703BD80B50A48BC
:100230000021016009480021016009480021016096
:100240000848FF21090601600748006800020749C5
:100250000860FFF7D5FFF7E704C002E014C002E032
:10026000088002E0188002E0008002E0108002E0D6
:1002700000000FE11F00C0E3120080E300F021E165
:1002800034D09FE507D0CDE31F00C0E3110080E329
:1002900000F021E124D09FE507D0CDE31F00C0E3AB
:1002A0001F0080E300F021E114D09FE507D0CDE3EB
:1002B0000000A0E10000A0E10B0000EA20210040C6
:1002C000203100402011004000C09FE51CFF2FE1BD
:1002D0001103000000C09FE51CFF2FE12D0200006C
:1002E00000C09FE51CFF2FE1150300000100A0E303
:1002F000F4FFFFEB000050E30000A0E10000A0E3EA
:10030000F3FFFFEBF5FFFFEB040000EBFDFFFFEA5F
:100310000120704780B500F013F809BC18470000B1
:1003200000502DE90000A0E12620A0E3802B82E30D
:100330000210A0E11800A0E3563412EFFBFFFFEA21
:100340007847C0460070B0E10700B0E1F3FFFFEB73
:0C035000FDFFFFEAFEFFFFEA0EF0B0E147
:040000050000027085
:00000001FF
